:100000000C9463000C948B000C948B000C941406DD
:100010000C9414060C9414060C948B000C948B0016
:100020000C948B000C948B000C948B000C948B0024
:100030000C948B000C948B000C948B000C948B0014
:100040000C9439050C948B000C9460040C943A04C5
:100050000C948B000C948B000C948B000C948B00F4
:100060000C948B000C948B000000000024002700EF
:100070002A0000000008000201000003040700003D
:1000800000000000000000000000250028002B00F8
:1000900000000000230026002900040404040404D6
:1000A0000404020202020202030303030303010227
:1000B00004081020408001020408102001020408F6
:1000C0001020440B3A0B11241FBECFEFD8E0DEBF47
:1000D000CDBF22E0ACE9B1E001C01D92AE3FB20756
:1000E000E1F711E0A0E0B1E0E8E6F0E202C005903F
:1000F0000D92AC39B107D9F710E0C2E6D0E004C0E8
:100100002197FE010E944F0CC136D107C9F70E940A
:100110007B070C9427100C940000CF92DF92EF9293
:10012000FF920F931F93CF93DF936C017A018B01A2
:10013000C0E0D0E0CE15DF0589F0D8016D918D01CA
:10014000D601ED91FC910190F081E02DC601099559
:10015000892B11F47E0102C02196ECCFC701DF91FB
:10016000CF911F910F91FF90EF90DF90CF90089566
:10017000FC01918D828D981761F0828DDF01A80FAF
:10018000B11D5D968C91928D9F5F9F73928F90E0D1
:1001900008958FEF9FEF0895FC01918D828D981740
:1001A00031F0828DE80FF11D858D90E008958FEF7D
:1001B0009FEF0895FC01918D228D892F90E0805C46
:1001C0009F4F821B91098F739927089586E292E0D1
:1001D0000E94DA0021E0892B09F420E0822F0895A3
:1001E000FC01848DDF01A80FB11DA35ABF4F2C91D4
:1001F000848D90E001968F739927848FA689B789A3
:100200002C93A089B1898C9180648C93938D848D7B
:10021000981306C00288F389E02D80818F7D80834A
:100220000895EF92FF920F931F93CF93DF93EC010A
:1002300081E0888F9B8D8C8D981305C0E889F989A2
:10024000808185FD24C0F62E0B8D10E00F5F1F4FBF
:100250000F731127E02E8C8DE8120CC00FB607FC2F
:10026000FACFE889F989808185FFF5CFCE010E9418
:10027000F000F1CF8B8DFE01E80FF11DE35AFF4F27
:10028000F0820B8FEA89FB898081806207C0EE894A
:10029000FF896083E889F98980818064808381E0B7
:1002A00090E0DF91CF911F910F91FF90EF90089513
:1002B000CF93DF93EC01888D8823C9F0EA89FB890D
:1002C000808185FD05C0A889B9898C9186FD0FC004
:1002D0000FB607FCF5CF808185FFF2CFA889B989D9
:1002E0008C9185FFEDCFCE010E94F000E7CFDF912A
:1002F000CF91089580E090E0892B29F00E94E600DC
:1003000081110C9400000895833081F028F481302D
:1003100099F08230A1F008958730A9F08830B9F0C3
:100320008430D1F4809180008F7D03C08091800063
:100330008F7780938000089584B58F7702C084B54D
:100340008F7D84BD08958091B0008F7703C0809128
:10035000B0008F7D8093B00008958E3008F08E50ED
:100360008770806480937C0080917A0080648093A1
:100370007A0080917A0086FDFCCF809178002091F0
:10038000790090E0922B08952091E7013091E801E7
:100390002817390771F49091E5018091E6019817CB
:1003A00041F0E091E501F0E0E456FE4F808190E0FD
:1003B00008958FEF9FEF089508951F93CF93DF93D4
:1003C000DC015C962D913C915D972115310539F446
:1003D00081E090E013969C938E9312973DC05196C6
:1003E000ED91FC91529750969C915097892F809552
:1003F0001FB75E964C915E9741FB772770F941FDE0
:100400006095F8944081772311F0492B01C048236F
:100410004083E9012197F1F748E0508160FF02C075
:10042000592B01C058235083E9012197F1F76695B4
:10043000415099F7772321F090818923808303C06D
:100440008081982B90831FBF5C968D919C915D97C6
:100450000197F1F721E030E0C901DF91CF911F91C1
:1004600008952091E7013091E8012817390771F4C8
:100470008091E6012091E50190E0805C9F4F821B16
:10048000910960E470E00E94270C089580E090E0FC
:1004900008952091E7013091E80128173907B9F450
:1004A0009091E5018091E601981789F0E091E501CE
:1004B000F0E0E456FE4F80812091E50130E02F5FAF
:1004C0003F4F2F7333272093E50190E008958FEF7E
:1004D0009FEF0895E091E701F091E801E817F9072F
:1004E00069F4A389B4899C918589809589238C932B
:1004F0001092E8011092E70181E0089580E00895EC
:100500004F925F926F927F928F929F92AF92BF9223
:10051000CF92DF92EF92FF920F93F9018617970720
:100520002CF0281739071CF4C90101C0CB016C015C
:10053000092E000CEE08FF084A01052E000CAA083F
:10054000BB0884179507D4F42B01770F660877084A
:10055000C418D508E608F708C701B60127E0660FFA
:10056000771F881F991F2A95D1F7A5019401241997
:100570003509460957090E94CC0F1DC0A7019601F5
:10058000281939094A095B09AFE7B0E00E94EB0F6F
:100590006F01FF0FEE08FF08A7019601281939091E
:1005A0004A095B090E94CC0FDA01C90180589F4FAC
:1005B000AF4FBF4F9C01002329F08FEF90E0821BCB
:1005C000930B01C0C9010F91FF90EF90DF90CF9086
:1005D000BF90AF909F908F907F906F905F904F9063
:1005E00008950E94BE0F6115710579F0FB0101901D
:1005F0000020E9F73197AF01461B570BDC01ED9165
:10060000FC910280F381E02D099480E090E0089550
:100610004F925F926F927F92EF92FF920F931F9390
:10062000CF93DF93CDB7DEB7A1970FB6F894DEBFB7
:100630000FBECDBF7C01FA01CB0119A2223008F414
:100640002AE08E010F5D1F4F422E512C612C712C20
:10065000BF01A30192010E94F60FF901CA010150E6
:1006600011096A3014F4605D01C0695CD8016C93B3
:10067000232B242B252B61F7B801C7010E94F3021D
:10068000A1960FB6F894DEBF0FBECDBFDF91CF911C
:100690001F910F91FF90EF907F906F905F904F9020
:1006A00008950C94F3024F925F926F927F928F9213
:1006B0009F92AF92BF92CF92DF92EF92FF92CF9331
:1006C000DF93EC016A017B01B22E9A01AB01C701F5
:1006D000B6010E948C0E882319F062E371E027C0F6
:1006E00026013701E89477F82FEF3FEF4FE75FE7F8
:1006F000C301B2010E948C0E81110DC02FEF3FEF9C
:100700004FE75FE7C301B2010E94C20C18161CF448
:1007100066E371E00CC02FEF3FEF4FE75FE4C701E6
:10072000B6010E941A0E18169CF46AE371E0CE011D
:10073000DF91CF91FF90EF90DF90CF90BF90AF907F
:100740009F908F907F906F905F904F900C94F302EA
:100750002FEF3FEF4FE75FECC701B6010E94C20CDD
:1007600087FDE3CF20E030E0A901C701B6010E9478
:10077000C20C87FF0EC0E881F9810190F081E02D65
:100780006DE2CE0109954C01F7FAF094F7F8F09478
:1007900002C0812C912CA12C60E070E080E09FE3EE
:1007A000AB1441F020E030E040E251E40E94C70C7D
:1007B000A394F6CF9B01AC01C701B6010E94560C71
:1007C0002B013C010E94390D6B017C010E94680DD8
:1007D0009B01AC01C301B2010E94550C2B013C01ED
:1007E0002AE0B701A601CE010E9408037C01E80CB3
:1007F000F91CBB2039F06EE371E0CE010E94F302D8
:10080000E80EF91EDB2CDD2029F120E030E040E28B
:1008100051E4C301B2010E941F0E2B013C010E9452
:10082000390D4B01A12CB12C2AE0B501A401CE0158
:100830000E940803E80EF91EC501B4010E94680D6C
:100840009B01AC01C301B2010E94550C2B013C017C
:10085000DA94D9CFC701DF91CF91FF90EF90DF906D
:10086000CF90BF90AF909F908F907F906F905F9050
:100870004F9008951F920F920FB60F9211242F934D
:100880003F934F935F936F937F938F939F93AF9318
:10089000BF93EF93FF9386E292E00E94F000FF91F6
:1008A000EF91BF91AF919F918F917F916F915F91E8
:1008B0004F913F912F910F900FBE0F901F90189561
:1008C0001F920F920FB60F9211242F938F939F9325
:1008D000EF93FF93E0913602F09137028081E0912F
:1008E0003C02F0913D0282FD12C0908180913F0256
:1008F0008F5F8F7320914002821751F0E0913F0289
:10090000F0E0EA5DFD4F958F80933F0201C080814A
:10091000FF91EF919F918F912F910F900FBE0F90AC
:100920001F9018951F93CF93DF93282F30E0F90184
:10093000EE58FF4F8491F901E255FF4FD491F90130
:10094000E656FF4FC491CC23C9F0162F81110E94A7
:100950008401EC2FF0E0EE0FFF1FEA57FF4FA59147
:10096000B4918FB7F894111105C09C91ED2FE095CB
:10097000E92302C0EC91ED2BEC938FBFDF91CF9177
:100980001F910895CF93DF93EC0160E08E810E9468
:10099000920461E08E810E94920460E08E810E9448
:1009A00092048BE891E00197F1F7DF91CF910895E0
:1009B000CF93DF9390E0FC01E255FF4F2491FC01BF
:1009C000E656FF4F8491882361F190E0880F991FCC
:1009D000FC01E859FF4FC591D491FC01EA57FF4F44
:1009E000A591B491611109C09FB7F89488812095B1
:1009F00082238883EC912E230BC0623061F49FB771
:100A0000F8943881822F809583238883EC912E2B54
:100A10002C939FBF06C08FB7F894E8812E2B2883B4
:100A20008FBFDF91CF9108953FB7F8948091E10196
:100A30009091E201A091E301B091E40126B5A89B59
:100A400005C02F3F19F00196A11DB11D3FBFBA2F60
:100A5000A92F982F8827820F911DA11DB11DBC01C0
:100A6000CD0142E0660F771F881F991F4A95D1F785
:100A700008951F920F920FB60F9211242F933F9358
:100A80008F939F93AF93BF938091DD019091DE018F
:100A9000A091DF01B091E0013091DC0123E0230F50
:100AA0002D3720F40196A11DB11D05C026E8230FA6
:100AB0000296A11DB11D2093DC018093DD0190936E
:100AC000DE01A093DF01B093E0018091E1019091FC
:100AD000E201A091E301B091E4010196A11DB11DD5
:100AE0008093E1019093E201A093E301B093E401CC
:100AF000BF91AF919F918F913F912F910F900FBE1A
:100B00000F901F901895CF92DF92EF92FF920F9364
:100B10001F93CF93DF937C016C0187E0C80ED11C3B
:100B2000C0E0D0E0062F10E0B8010C2E02C0759591
:100B300067950A94E2F76170F60181916F010E9456
:100B400092042196C430D10579F7C701DF91CF9186
:100B50001F910F91FF90EF90DF90CF900C94C20403
:100B6000CF92DF92EF92FF920F931F93CF93DF9379
:100B7000EC01F62E642F8C810E9492048D818F3FB0
:100B800019F060E00E9492048F850F2D10E084FF21
:100B900025C06E0187E0C80ED11CE12CF12CB801F4
:100BA0000E2C02C0759567950A94E2F76170F60104
:100BB00081916F010E949204FFEFEF1AFF0A88E013
:100BC000E816F10461F7CE01DF91CF911F910F91EB
:100BD000FF90EF90DF90CF900C94C204B80184E0B6
:100BE000759567958A95E1F7CE010E9483056F2D73
:100BF000CE01DF91CF911F910F91FF90EF90DF9089
:100C0000CF900C94830541E00E94B00581E090E014
:100C1000089540E00C94B00561E00E9409068BE362
:100C20009FE10197F1F708951F920F920FB60F926F
:100C300011242F933F934F935F936F937F938F93E1
:100C40009F93AF93BF93EF93FF93E091E701F091F0
:100C5000E801309709F451C0968DA685B785858542
:100C600091FF04C09C91892329F447C09C9189235A
:100C700009F043C0A389B4899C9185898095892313
:100C80008C93868997890197F1F7608D718DA68580
:100C9000B785558538E020E0CB010197F1F7822F29
:100CA00090E095958795282F4C91452309F0206871
:100CB000315091F7868D81FD20958091E60190E07D
:100CC00001968F7399273091E501381749F0A0916B
:100CD000E601B0E0A456BE4F2C938093E60103C01A
:100CE000868D8160868F828D938D0197F1F7A38920
:100CF000B4899C918589892B8C93FF91EF91BF9149
:100D0000AF919F918F917F916F915F914F913F91A3
:100D10002F910F900FBE0F901F901895EF92FF929A
:100D20000F931F93CF93DF93EC01623018F08F8500
:100D300088608F876B8B1C8A80E48D8B80E18E8B23
:100D400080E58F8B61E08C810E94D8048D818F3F7C
:100D500019F061E00E94D80461E08E810E94D804FD
:100D60007E0187E0E80EF11C00E010E08F8584FD35
:100D700003C084E090E002C088E090E00817190703
:100D80004CF461E0F70181917F010E94D8040F5F6C
:100D90001F4FECCF8BE39DE00197F1F760E08C8172
:100DA0000E94920460E08E810E9492048D818F3FA8
:100DB00019F060E00E9492046F8564FD1DC063E03D
:100DC000CE010E9483050BE416E4C8010197F1F7F8
:100DD00063E0CE010E948305C8010197F1F763E04B
:100DE000CE010E94830583E592E00197F1F762E06E
:100DF000CE010E94830516C06062CE010E940906E2
:100E00008BE496E40197F1F76F856062CE010E9452
:100E1000090683E592E00197F1F76F856062CE01E4
:100E20000E9409066F856062CE010E94090684E077
:100E3000888B6CE0CE010E940906CE010E940C0650
:100E400082E0898B66E0CE01DF91CF911F910F91F7
:100E5000FF90EF900C9409068F929F92AF92BF92F1
:100E6000CF92DF92EF92FF920E9414054B015C013A
:100E70008AE0C82ED12CE12CF12C0E941405DC0153
:100E8000CB0188199909AA09BB09883E9340A1059D
:100E9000B10558F021E0C21AD108E108F10888EE46
:100EA000880E83E0981EA11CB11CC114D104E1047A
:100EB000F10419F7FF90EF90DF90CF90BF90AF90C3
:100EC0009F908F90089522E00C945303643008F0B3
:100ED00063E09091F502691710F06FEF690FE62F4C
:100EE000F0E0EE51FD4F9489682F690F606882EE43
:100EF00092E00C940906789484B5826084BD84B530
:100F0000816084BD85B5826085BD85B5816085BD04
:100F100080916E00816080936E00109281008091BC
:100F20008100826080938100809181008160809344
:100F30008100809180008160809380008091B10069
:100F400084608093B1008091B00081608093B00094
:100F500080917A00846080937A0080917A00826028
:100F600080937A0080917A00816080937A008091EA
:100F70007A00806880937A001092C100E091360276
:100F8000F091370282E08083E0913202F0913302E7
:100F90001082E0913402F09135028FEC8083109240
:100FA0003E02E0913A02F0913B0286E08083E091BC
:100FB0003802F0913902808180618083E0913802AB
:100FC000F0913902808188608083E0913802F0914D
:100FD0003902808180688083E0913802F091390283
:100FE00080818F7D80831092DE021092DD0210924C
:100FF000DC021092DB021092DA021092D9028DE923
:1010000091E09093E0028093DF029091CF029631BD
:1010100008F057C02DEB30E03093DA022093D9026C
:101020002BE931E03093DC022093DB022CE231E04B
:101030003093DE022093DD0220916800983050F05A
:1010400031E09E3008F430E081E001C0880F3A952D
:10105000EAF701C084E0822B80936800983038F072
:101060009E3040F0963148F020E030E008C02DE698
:1010700030E005C02BE630E002C02CE630E03093D3
:10108000D7022093D602983030F481E001C0880F57
:101090009A95EAF70EC0292F30E09E3018F42850B8
:1010A000310902C02E50310981E001C0880F2A9514
:1010B000EAF78093D8028091DF029091E0020197D5
:1010C000F1F78091DD029091DE02892B21F1809170
:1010D000E7019091E80122E0833C9207E1F000975C
:1010E00011F00E946A028091E1028E7F8093E102FA
:1010F0001092E6011092E50183EC92E09093E801F2
:101100008093E701E091D602F091D702908180911F
:10111000D802892B808362E082EE92E00E948E06E4
:1011200082EE92E00E940C0689EE91E0909310020C
:1011300080930F0284E280931102C6E2D2E0D09342
:101140000E02C0930D0285E290E00E94910E9093F2
:1011500013028093120281E292E090931A0280932C
:10116000190285E080931B02D0931802C0931702E6
:1011700086E090E00E94910E90931D0280931C02E5
:10118000CFE7D0E03BEBE32E30E0F32E47EAC42E6E
:1011900040E0D42E80E00E94AD0100E020ED32E07E
:1011A0004FE052E064E571E00E94800280932102EA
:1011B00081E00E94AD0101E02BE333E040E352E027
:1011C0006CE171E00E9480028093220283E00E9421
:1011D000AD012FEC33E042E152E062E370E00E94A7
:1011E00080028093230282E00E94AD0127EF33E06A
:1011F00044E152E06BE170E00E948002809324029F
:10120000FE018491F7010491F6011491112381F0FC
:1012100081110E948401812F90E0880F991F8057CF
:101220009F4FFC01A591B4918C91082309F001C254
:1012300081E080932502B0901B028091170290916B
:101240001802DC01ED91FC910190F081E02D66E047
:1012500009958091170290911802DC01ED91FC91A3
:101260000190F081E02D65E8099580911702909139
:101270001802DC01ED91FC910190F081E02D60916C
:101280001B02099500E010E020911B0230E08091E4
:101290001702909118020217130794F4E0911902B3
:1012A000F0911A02E00FF11F6081B626DC01ED918A
:1012B000FC910190F081E02D09950F5F1F4FE4CF65
:1012C000DC01ED91FC910190F081E02D6B2D0995F1
:1012D00005E010E080911502811145C080910D025A
:1012E00090910E02DC01ED91FC910480F581E02DDE
:1012F00009950397C4F180910D0290910E02DC01D3
:10130000ED91FC910680F781E02D0995A0910D02E9
:10131000B0910E02ED91FC911197069741F0048077
:10132000F581E02DCD01099503972CF762C0068069
:10133000F781E02DCD01099585389105A1F48091C3
:101340000D0290910E02DC01ED91FC910680F78177
:10135000E02D09958093150290911102891719F0DB
:101360001092150246C080911502882309F441C0ED
:1013700080910D0290910E02DC01ED91FC910480B0
:10138000F581E02D09953091150220911402892BE9
:1013900009F452C1321708F44FC1A0901202B09064
:1013A000130281E0820F80931402A20EB11C80917F
:1013B0000D0290910E02DC01ED91FC910680F78107
:1013C000E02D0995F5018083D3CFFB01E20FF11DDC
:1013D00031979081891309C04091110250E08091AA
:1013E0000F02909110020E94C30F109215021092EA
:1013F00014020E942C070150110909F06BCF60E420
:1014000071E083EC92E00E9451034091E901509118
:10141000EA016091EB017091EC0183EC92E00E9493
:10142000630767E471E083EC92E00E94510340910E
:10143000ED015091EE016091EF017091F00183ECAC
:1014400092E00E94630760E571E083EC92E00E9405
:1014500051034091F1015091F2016091F3017091BB
:10146000F40183EC92E00E94630768E571E083EC8D
:1014700092E00E9451034091F5015091F601609174
:10148000F7017091F80183EC92E00E94630760E637
:1014900071E083EC92E00E9451034091F901509178
:1014A000FA016091FB017091FC0183EC92E00E94D3
:1014B000630767E671E083EC92E00E94510340917C
:1014C000FD015091FE016091FF017091000283ECDB
:1014D00092E00E94630761E771E083EC92E00E9472
:1014E00051034091010250910202609103027091F8
:1014F000040283EC92E00E9463076BE771E083ECE7
:1015000092E00E94510340910502509106026091C1
:1015100007027091080283EC92E00E94630765E87D
:1015200071E083EC92E00E945103409109025091D6
:101530000A0260910B0270910C0222E083EC92E0AF
:101540000E9453036FE871E083EC92E00E94F30283
:1015500082EE92E00E940C0660E080E00E94660746
:1015600062E971E082EE92E00E94510360E084E063
:101570000E9466074091E9015091EA016091EB01F8
:101580007091EC0182EE92E00E94630760E088E0D7
:101590000E94660767E971E082EE92E00E945103C3
:1015A00060E08CE00E9466074091ED015091EE01F1
:1015B0006091EF017091F00182EE92E00E9463076A
:1015C00061E080E00E94660767E971E082EE92E0E8
:1015D0000E94510361E084E00E9466074091F1019E
:1015E0005091F2016091F3017091F40182EE92E06A
:1015F0000E94630761E088E00E94660767E971E086
:1016000082EE92E00E94510361E08CE00E94660746
:101610004091F5015091F6016091F7017091F80148
:1016200082EE92E00E9463070E942C070E947A01DA
:10163000B1CD10922502FFCD432F50E0822F90E0D4
:1016400001974817590709F0D4CE309316026091DC
:10165000120270911302DB0180911602FD01E61B5C
:10166000F70BE417F5070CF0B0CE9D918927809316
:101670001602F2CF8EE191E09093C4028093C302F0
:1016800083EC92E00C946A02CF92DF92EF92FF9289
:10169000109229021092280298EEC92E93E0D92EBA
:1016A000E12CF12CC0922A02D0922B02E0922C0263
:1016B000F0922D028EE091E0909327028093260213
:1016C00085EC90E0909333028093320284EC90E0BA
:1016D000909335028093340280EC90E0909337022F
:1016E0008093360281EC90E0909339028093380227
:1016F00082EC90E090933B0280933A0286EC90E07B
:1017000090933D0280933C0210923F02109240025F
:1017100010924102109242021092E5021092E402ED
:101720008EE291E09093E3028093E2028CE080935A
:10173000E6028FEF8093E7028BE08093E8028AE075
:101740008093E90289E08093EA0288E08093EB02CB
:1017500087E08093EC021092ED021092EE0210925C
:10176000EF021092F0021092F10261E082EE92E03C
:101770000E948E061092C6021092C502C092C70245
:10178000D092C802E092C902F092CA028EE191E0C2
:101790009093C4028093C3021092DA021092D9028D
:1017A0001092DC021092DB021092DE021092DD0237
:1017B0001092E0021092DF026091E1026E7F6D7F75
:1017C0006093E1026695617081E0682783E00E9482
:1017D000920461E083E00E94D804E1EBF0E0E49140
:1017E000E093D302EDE9F0E0E491F0E0EE0FFF1FAB
:1017F000EA57FF4F859194919093D5028093D4023C
:1018000060E082E00E94D8048091E10281FD04C082
:1018100061E082E00E94920482E08093CF02E0EBDC
:10182000F0E0E491E093D002ECE9F0E0E491F0E044
:10183000EE0FFF1FE057FF4F859194919093D202D6
:101840008093D102FF90EF90DF90CF90089597FBA7
:10185000072E16F4009407D077FD09D00E943B0CA8
:1018600007FC05D03EF4909581959F4F08957095A3
:1018700061957F4F0895AA1BBB1B51E107C0AA1FAA
:10188000BB1FA617B70710F0A61BB70B881F991F21
:101890005A95A9F780959095BC01CD010895EE0F5A
:1018A000FF1F0590F491E02D09945058BB27AA27FB
:1018B0000E946D0C0C94E00D0E94D20D38F00E9435
:1018C000D90D20F039F49F3F19F426F40C94CF0D74
:1018D0000EF4E095E7FB0C94C90DE92F0E94F10D81
:1018E00058F3BA17620773078407950720F079F455
:1018F000A6F50C94130E0EF4E0950B2EBA2FA02D26
:101900000B01B90190010C01CA01A0011124FF27AC
:10191000591B99F0593F50F4503E68F11A16F040A7
:10192000A22F232F342F4427585FF3CF46953795A6
:101930002795A795F0405395C9F77EF41F16BA0B6B
:10194000620B730B840BBAF09150A1F0FF0FBB1F19
:10195000661F771F881FC2F70EC0BA0F621F731F62
:10196000841F48F4879577956795B795F7959E3FBF
:1019700008F0B0CF9395880F08F09927EE0F979550
:10198000879508950E94A50D08F481E008950E94AE
:10199000DB0C0C94E00D0E94D90D58F00E94D20D82
:1019A00040F029F45F3F29F00C94C90D51110C94BB
:1019B000140E0C94CF0D0E94F10D68F39923B1F32E
:1019C000552391F3951B550BBB27AA276217730765
:1019D000840738F09F5F5F4F220F331F441FAA1FF9
:1019E000A9F335D00E2E3AF0E0E832D091505040B5
:1019F000E695001CCAF72BD0FE2F29D0660F771F63
:101A0000881FBB1F261737074807AB07B0E809F048
:101A1000BB0B802DBF01FF2793585F4F3AF09E3FCD
:101A2000510578F00C94C90D0C94140E5F3FE4F34B
:101A3000983ED4F3869577956795B795F7959F5F10
:101A4000C9F7880F911D9695879597F90895E1E05C
:101A5000660F771F881FBB1F621773078407BA07BB
:101A600020F0621B730B840BBA0BEE1F88F7E09516
:101A700008950E94F90D88F09F5798F0B92F992783
:101A8000B751B0F0E1F0660F771F881F991F1AF069
:101A9000BA95C9F714C0B13091F00E94130EB1E0AD
:101AA00008950C94130E672F782F8827B85F39F0AC
:101AB000B93FCCF3869577956795B395D9F73EF402
:101AC00090958095709561957F4F8F4F9F4F0895AA
:101AD000E89409C097FB3EF49095809570956195C8
:101AE0007F4F8F4F9F4F9923A9F0F92F96E9BB277E
:101AF0009395F695879577956795B795F111F8CFFA
:101B0000FAF4BB0F11F460FF1BC06F5F7F4F8F4F64
:101B10009F4F16C0882311F096E911C0772321F05A
:101B20009EE8872F762F05C0662371F096E8862FF2
:101B300070E060E02AF09A95660F771F881FDAF749
:101B4000880F9695879597F90895990F0008550F76
:101B5000AA0BE0E8FEEF16161706E807F907C0F033
:101B600012161306E407F50798F0621B730B840B3B
:101B7000950B39F40A2661F0232B242B252B21F415
:101B800008950A2609F4A140A6958FEF811D811DB5
:101B9000089597F99F6780E870E060E008959FEFEF
:101BA00080EC089500240A941616170618060906F4
:101BB000089500240A9412161306140605060895C3
:101BC000092E0394000C11F4882352F0BB0F40F44B
:101BD000BF2B11F460FF04C06F5F7F4F8F4F9F4F8B
:101BE000089557FD9058440F551F59F05F3F71F00D
:101BF0004795880F97FB991F61F09F3F79F0879574
:101C00000895121613061406551FF2CF4695F1DFFC
:101C100008C0161617061806991FF1CF869571058C
:101C2000610508940895E894BB2766277727CB01C0
:101C300097F908950E94A50D08F48FEF08950E946A
:101C4000320E0C94E00D0E94D20D38F00E94D90D96
:101C500020F0952311F00C94C90D0C94CF0D112494
:101C60000C94140E0E94F10D70F3959FC1F3950F23
:101C700050E0551F629FF001729FBB27F00DB11D10
:101C8000639FAA27F00DB11DAA1F649F6627B00DA0
:101C9000A11D661F829F2227B00DA11D621F739F89
:101CA000B00DA11D621F839FA00D611D221F749F97
:101CB0003327A00D611D231F849F600D211D822FDE
:101CC000762F6A2F11249F5750409AF0F1F0882305
:101CD0004AF0EE0FFF1FBB1F661F771F881F915032
:101CE0005040A9F79E3F510580F00C94C90D0C940B
:101CF000140E5F3FE4F3983ED4F38695779567958D
:101D0000B795F795E7959F5FC1F7FE2B880F911D5B
:101D10009695879597F908950E94A50D880B990BC4
:101D20000895CF93DF938230910510F482E090E024
:101D3000E091FC02F091FD0220E030E0C0E0D0E054
:101D4000309711F14081518148175907C0F0481769
:101D5000590761F482819381209719F09B838A83CC
:101D60002BC09093FD028093FC0226C02115310503
:101D700019F04217530718F49A01BE01DF01EF0171
:101D80000280F381E02DDCCF2115310509F1281BFC
:101D9000390B2430310590F412968D919C91139754
:101DA0006115710521F0FB019383828304C0909338
:101DB000FD028093FC02FD01329644C0FD01E20F5A
:101DC000F31F81939193225031092D933C933AC094
:101DD0002091FA023091FB02232B41F42091020161
:101DE000309103013093FB022093FA02209100010D
:101DF000309101012115310541F42DB73EB74091D5
:101E0000040150910501241B350BE091FA02F09179
:101E1000FB02E217F307A0F42E1B3F0B281739072C
:101E200078F0AC014E5F5F4F2417350748F04E0F36
:101E30005F1F5093FB024093FA028193919302C07B
:101E4000E0E0F0E0CF01DF91CF9108950F931F9371
:101E5000CF93DF93009709F48CC0FC013297138273
:101E600012820091FC021091FD020115110581F40E
:101E700020813181820F931F2091FA023091FB0261
:101E80002817390779F5F093FB02E093FA0271C045
:101E9000D80140E050E0AE17BF0750F412962D91E4
:101EA0003C911397AD012115310509F1D901F3CF0B
:101EB0009D01DA013383228360817181860F971F30
:101EC0008217930769F4EC0128813981260F371FA7
:101ED0002E5F3F4F318320838A819B81938382834E
:101EE000452B29F4F093FD02E093FC0242C01396C7
:101EF000FC93EE931297ED01499159919E01240FA5
:101F0000351FE217F30771F480819181840F951FCB
:101F1000029611969C938E938281938113969C9343
:101F20008E931297E0E0F0E0D80112968D919C918B
:101F30001397009719F0F8018C01F6CF8D919C91C1
:101F400098012E5F3F4F820F931F2091FA0230912C
:101F5000FB022817390769F4309729F41092FD0223
:101F60001092FC0202C0138212821093FB020093B3
:101F7000FA02DF91CF911F910F91089581E090E0D7
:101F8000F8940C942710FB01DC0102C001900D9223
:101F900041505040D8F70895052E97FB1EF4009449
:101FA0000E94E30F57FD07D00E94F60F07FC03D0F5
:101FB0004EF40C94E30F50954095309521953F4F8A
:101FC0004F4F5F4F089590958095709561957F4F25
:101FD0008F4F9F4F08950E941810A59F900DB49F9A
:101FE000900DA49F800D911D11240895A1E21A2E39
:101FF000AA1BBB1BFD010DC0AA1FBB1FEE1FFF1FAD
:10200000A217B307E407F50720F0A21BB30BE40BFC
:10201000F50B661F771F881F991F1A9469F7609543
:102020007095809590959B01AC01BD01CF010895FD
:10203000A29FB001B39FC001A39F700D811D112409
:10204000911DB29F700D811D1124911D089510E006
:10205000C2E6D0E004C0FE010E944F0C2196C336B8
:08206000D107C9F7F894FFCF86
:102068000000FE02800001000000000000001101D5
:102078008D00DA00B800CC00580100000000DD0136
:102088008D0031024902C401DC0100000000030692
:102098008D006E616E00696E66006F7666002E00B8
:1020A80053707279253A00202042617474253A00F1
:1020B8002020475053783A002020475053793A005F
:1020C8002020414C543A0020205352303446253ABF
:1020D8000020205352303442253A002020535230F9
:1020E800344C253A0020205352303452253A000D02
:0C20F8000A005350523A004241543A0092
:00000001FF
