:100000000C9463000C948B000C948B000C945A0697
:100010000C945A060C945A060C948B000C943005E0
:100020000C948B000C948B000C948B000C948B0024
:100030000C948B000C948B000C948B000C948B0014
:100040000C94B8030C948B000C94AC010C948601B6
:100050000C948B000C948B000C948B000C948B00F4
:100060000C9402040C948B00000000002400270074
:100070002A000000000023002600290000000000E4
:10008000250028002B0004040404040404040202D4
:100090000202020203030303030301020408102007
:1000A0004080010204081020010204081020000012
:1000B0000008000201000003040700000000000027
:1000C0000000830C6D0C11241FBECFEFD8E0DEBF03
:1000D000CDBF11E0A0E0B1E0EEEBFFE102C0059082
:1000E0000D92AA37B107D9F724E0AAE7B1E001C021
:1000F0001D92A335B207E1F710E0C2E6D0E004C0DC
:100100002197FE010E94910DC136D107C9F70E94C7
:1001100088080C94D20F0C940000CF92DF92EF92DB
:10012000FF920F931F93CF93DF936C017A018B01A2
:10013000C0E0D0E0CE15DF0589F0D8016D918D01CA
:10014000D601ED91FC910190F081E02DC601099559
:10015000892B11F47E0102C02196ECCFC701DF91FB
:10016000CF911F910F91FF90EF90DF90CF90089566
:10017000FC01918D828D981761F0828DDF01A80FAF
:10018000B11D5D968C91928D9F5F9F73928F90E0D1
:1001900008958FEF9FEF0895FC01918D828D981740
:1001A00031F0828DE80FF11D858D90E008958FEF7D
:1001B0009FEF0895FC01918D228D892F90E0805C46
:1001C0009F4F821B91098F73992708958DEA92E0C2
:1001D0000E94DA0021E0892B09F420E0822F0895A3
:1001E000FC01848DDF01A80FB11DA35ABF4F2C91D4
:1001F000848D90E001968F739927848FA689B789A3
:100200002C93A089B1898C9180648C93938D848D7B
:10021000981306C00288F389E02D80818F7D80834A
:100220000895EF92FF920F931F93CF93DF93EC010A
:1002300081E0888F9B8D8C8D981305C0E889F989A2
:10024000808185FD24C0F62E0B8D10E00F5F1F4FBF
:100250000F731127E02E8C8DE8120CC00FB607FC2F
:10026000FACFE889F989808185FFF5CFCE010E9418
:10027000F000F1CF8B8DFE01E80FF11DE35AFF4F27
:10028000F0820B8FEA89FB898081806207C0EE894A
:10029000FF896083E889F98980818064808381E0B7
:1002A00090E0DF91CF911F910F91FF90EF90089513
:1002B000CF93DF93EC01888D8823C9F0EA89FB890D
:1002C000808185FD05C0A889B9898C9186FD0FC004
:1002D0000FB607FCF5CF808185FFF2CFA889B989D9
:1002E0008C9185FFEDCFCE010E94F000E7CFDF912A
:1002F000CF91089580E090E0892B29F00E94E600DC
:1003000081110C94000008950E94C40F1F920F9257
:100310000FB60F9211242F933F934F935F936F93D8
:100320007F938F939F93AF93BF93EF93FF938DEA48
:1003300092E00E94F000FF91EF91BF91AF919F91E9
:100340008F917F916F915F914F913F912F910F907E
:100350000FBE0F901F9018951F920F920FB60F921D
:1003600011242F938F939F93EF93FF93E091BD02FE
:10037000F091BE028081E091C302F091C40282FD3F
:1003800012C090818091C6028F5F8F732091C70247
:10039000821751F0E091C602F0E0E355FD4F958FD2
:1003A0008093C60201C08081FF91EF919F918F9150
:1003B0002F910F900FBE0F901F90189585ED809391
:1003C000BC008091BC0084FDFCCF1092A201089576
:1003D00040917B02262F30E0240F311D2132310560
:1003E000DCF42091A2012430C9F4FC0180E090E00B
:1003F000861758F430917B022191DC01A75ABD4F3A
:10040000A30FB11D2C930196F3CF80917B02680F4F
:1004100060937B0280E0089581E0089582E0089572
:10042000089581E090E030917B0120917A013217AC
:1004300010F480E090E09195819591090895809164
:100440007B0190917A01891730F48F5F80937B0153
:1004500080E090E008958FEF9FEF089580917A01FA
:1004600090E020917B01821B91090895CF92DF9249
:10047000EF92FF920F931F93CF93DF937C01262F70
:10048000972F8A018091C501882391F0C62FD72F1D
:100490006E01C40ED51ECC15DD0571F06991D70132
:1004A000ED91FC910190F081E02DC7010995F3CF0A
:1004B000642F822F0E94E801C801DF91CF911F9124
:1004C0000F91FF90EF90DF90CF900895CF93DF933F
:1004D0001F92CDB7DEB769832091C5012223D1F0E9
:1004E0002091C301203240F021E030E0FC01338351
:1004F000228380E090E015C08091C401E82FF0E0F5
:10050000ED55FE4F998190838F5F8093C401809356
:10051000C30105C061E0CE0101960E94E80181E0BF
:1005200090E00F90DF91CF9108952091AB02309130
:10053000AC022817390771F49091A9028091AA02A0
:10054000981741F0E091A902F0E0E95EFD4F80814B
:1005500090E008958FEF9FEF089508951F93CF9334
:10056000DF93DC015C962D913C915D97211531055F
:1005700039F481E090E013969C938E9312973DC0DE
:100580005196ED91FC91529750969C915097892FDE
:1005900080951FB75E964C915E9741FB772770F967
:1005A00041FD6095F8944081772311F0492B01C0FB
:1005B00048234083E9012197F1F748E0508160FF2B
:1005C00002C0592B01C058235083E9012197F1F74C
:1005D0006695415099F7772321F090818923808394
:1005E00003C08081982B90831FBF5C968D919C9156
:1005F0005D970197F1F721E030E0C901DF91CF91DC
:100600001F9108952091AB023091AC022817390751
:1006100071F48091AA022091A90290E0805C9F4F22
:10062000821B910960E470E00E94470D089580E00C
:1006300090E008952091AB023091AC022817390761
:10064000B9F49091A9028091AA02981789F0E091DB
:10065000A902F0E0E95EFD4F80812091A90230E01F
:100660002F5F3F4F2F7333272093A90290E0089507
:100670008FEF9FEF089590E0FC01E255FF4F34911A
:10068000FC01E656FF4F2491FC01EA57FF4FE4912D
:10069000EE2309F43BC0332339F1333091F038F4C1
:1006A0003130A9F0323001F584B58F7D12C037307A
:1006B00091F03830A1F03430B9F4809180008F7D12
:1006C00003C0809180008F77809380000DC084B537
:1006D0008F7784BD09C08091B0008F7703C080916F
:1006E000B0008F7D8093B000F0E0EE0FFF1FE45864
:1006F000FF4FA591B4918FB7F894EC91611103C0AD
:1007000020952E2301C02E2B2C938FBF08953FB729
:10071000F8948091A5029091A602A091A702B091B1
:10072000A80226B5A89B05C02F3F19F00196A11D70
:10073000B11D3FBFBA2FA92F982F8827820F911D77
:10074000A11DB11DBC01CD0142E0660F771F881FBE
:10075000991F4A95D1F708952FB7F8946091A10297
:100760007091A2028091A3029091A4022FBF0895DC
:100770001F920F920FB60F9211242F933F938F93D6
:100780009F93AF93BF938091A1029091A202A091F9
:10079000A302B091A4023091A00223E0230F2D37D1
:1007A00020F40196A11DB11D05C026E8230F029675
:1007B000A11DB11D2093A0028093A1029093A202DB
:1007C000A093A302B093A4028091A5029091A602E7
:1007D000A091A702B091A8020196A11DB11D80931E
:1007E000A5029093A602A093A702B093A802BF917E
:1007F000AF919F918F913F912F910F900FBE0F90CE
:100800001F9018951F920F920FB60F9211242F93DD
:100810003F934F935F936F937F938F939F93AF9388
:10082000BF93EF93FF938091B900887F803609F4DE
:100830009CC068F5883209F45BC090F4803109F4FB
:1008400054C038F4882309F4F6C0883009F44DC048
:10085000F6C0883109F44CC0803209F45DC0EFC0A5
:10086000803409F468C048F4803309F455C08833F3
:1008700009F0E5C08093A001D8C0803509F44FC0CD
:10088000883509F45DC0883409F0D9C0D6C08839EC
:1008900009F4C7C0A8F4883709F467C038F488366B
:1008A00009F463C0803709F460C0C9C0883809F40E
:1008B000B8C0803909F45FC0803809F0C0C05BC09F
:1008C000803B09F486C038F4803A09F466C0883A5F
:1008D00009F47FC0B4C0803C09F4A7C0883C09F487
:1008E000A4C0883B09F48AC0AAC080917D0110C0D1
:1008F00090919F0180919E01981770F5E0919F0162
:1009000081E08E0F80939F01F0E0E258FE4F8081DE
:100910008093BB0085EC86C08093A0018EC0E091DF
:100920009F0181E08E0F80939F018091BB00F0E0DA
:10093000E258FE4F808390919F0180919E016EC08E
:10094000E0919F0181E08E0F80939F018091BB0019
:10095000F0E0E258FE4F80838091A10181116DC0CB
:1009600081E080937C0184EA61C083E08093A201EE
:1009700010929F02CFCF80919F02803208F051C029
:10098000E0919F0281E08E0F80939F028091BB00D7
:10099000F0E0E158FD4F8083BDCF85EC8093BC0033
:1009A0001092A20180919F02803230F4E0919F0268
:1009B000F0E0E158FD4F108260919F0270E0E091FD
:1009C0007D02F0917E028FE792E0099510929F02DE
:1009D00036C084E08093A20110927C0210927B02C8
:1009E000E0917902F0917A02099580917B02811160
:1009F00005C081E080937B0210925902E0917C0255
:100A000081E08E0F80937C02F0E0E75AFD4F8081F9
:100A10008093BB0090917C0280917B02981708F430
:100A200079CF85E88093BC000AC085EC8093BC0038
:100A30001092A20104C01092A0010E94DE01FF9159
:100A4000EF91BF91AF919F918F917F916F915F9146
:100A50004F913F912F910F900FBE0F901F901895BF
:100A60001F920F920FB60F9211242F933F934F9323
:100A70005F936F937F938F939F93AF93BF93EF9306
:100A8000FF93E0915702F09158020995FF91EF9181
:100A9000BF91AF919F918F917F916F915F914F9196
:100AA0003F912F910F900FBE0F901F901895DC0172
:100AB00070E0FB01E656FF4FE4911496EC93149717
:100AC00050E0FA01E656FF4FE4911596EC93159726
:100AD0006A577F4FFB018491E82FF0E0EE0FFF1F74
:100AE000E458FF4F8591949117969C938E93169797
:100AF000FA01EA57FF4F449150E0440F551F4E58FA
:100B00005F4FFA018591949119969C938E93189753
:100B1000FB016491E62FF0E0EE0FFF1FE859FF4F55
:100B2000859194911B969C938E931A972F5F3F4FBC
:100B300049E3429FC001439F900D11248E38FFE688
:100B40009F0710F08DE89FE61D969C938E931C974F
:100B50000895AF92BF92CF92DF92FF920F931F93AF
:100B6000CF93DF931F92CDB7DEB75C01F62EFC0169
:100B70001382128288EE93E0A0E0B0E08483958334
:100B8000A683B78382E491E091838083178A168AD3
:100B9000118E108E138E128E158E148E668D6E7FB2
:100BA00020FB61F9668F6695617081E06827842F6C
:100BB00049830E943B03498150E0BA0166567F4F4A
:100BC000FB01A4914A575F4FFA0184918823A9F051
:100BD00090E0880F991F9C0128593F4FF90105911A
:100BE000149184589F4FFC01259134918FB7F8944C
:100BF000F8019081A92BA0838FBFFB016491F501BF
:100C0000608BFA014491E42FF0E0EE0FFF1FE458EF
:100C1000FF4F85919491F501928B818B0F2D10E000
:100C2000C80186569F4F6C01FC0184910A571F4FE3
:100C3000F80124912223C1F030E0220F331FF90183
:100C4000E859FF4FA591B49124583F4FF9014591C0
:100C500054912FB7F8949C91809598239C93FA0116
:100C60009081892380832FBFF501868D81FD04C08B
:100C700061E08F2D0E943B03F501F486F601C490DC
:100C8000F501C586F8010491E02FF0E0EE0FFF1F9B
:100C9000EE58FF4F85919491F501978786870F90C5
:100CA000DF91CF911F910F91FF90DF90CF90BF9078
:100CB000AF9008951F920F920FB60F9211242F93A9
:100CC0003F934F935F936F937F938F939F93AF93D4
:100CD000BF93EF93FF93E091AB02F091AC0230979A
:100CE00009F451C0968DA685B785858591FF04C00E
:100CF0009C91892329F447C09C91892309F043C022
:100D0000A389B4899C918589809589238C93868950
:100D100097890197F1F7608D718DA685B785558507
:100D200038E020E0CB010197F1F7822F90E0959514
:100D30008795282F4C91452309F02068315091F771
:100D4000868D81FD20958091AA0290E001968F7397
:100D500099273091A902381749F0A091AA02B0E072
:100D6000A95EBD4F2C938093AA0203C0868D81603B
:100D7000868F828D938D0197F1F7A389B4899C9119
:100D80008589892B8C93FF91EF91BF91AF919F91B2
:100D90008F917F916F915F914F913F912F910F9024
:100DA0000FBE0F901F901895E091AB02F091AC022E
:100DB000E817F90769F4A389B4899C91858980951E
:100DC00089238C931092AC021092AB0281E00895BB
:100DD00080E00895CF93DF93FC01138E128E118E65
:100DE000108E178A168A8DE991E0958F848F8485FD
:100DF000863108F04DC02DEB30E0378B268B2BE988
:100E000031E0318F208F2CE231E0338F228F9091AF
:100E10006800883050F021E08E3008F420E081E056
:100E200001C0880F2A95EAF701C084E0892B8093DE
:100E300068009485983038F09E3040F0963148F044
:100E400020E030E008C02DE630E005C02BE630E0C1
:100E500002C02CE630E0348B238B983030F481E0F4
:100E600001C0880F9A95EAF70EC0292F30E09E3016
:100E700018F42850310902C02E50310981E001C018
:100E8000880F2A95EAF7858B848D958D0197F1F768
:100E9000828D938D892BE9F08091AB029091AC0209
:100EA0008E179F07B1F0EF01009711F00E94D40652
:100EB0008E8D8E7F8E8F1092AA021092A902D093EF
:100EC000AC02C093AB02EB89FC8990818D89892BA0
:100ED0008083DF91CF9108958F929F92AF92BF92BE
:100EE000CF92DF92EF92FF920E9487034B015C0149
:100EF0008AE0C82ED12CE12CF12C0E948703DC0162
:100F0000CB0188199909AA09BB09883E9340A1051C
:100F1000B10558F021E0C21AD108E108F10888EEC5
:100F2000880E83E0981EA11CB11CC114D104E104F9
:100F3000F10419F7FF90EF90DF90CF90BF90AF9042
:100F40009F908F900895009769F0FC010190002018
:100F5000E9F73197AF01481B590BBC0186E593E0D7
:100F60000C948D0080E090E008958F929F92AF9254
:100F7000BF920F931F93CF93DF93CDB7DEB7A197A7
:100F80000FB6F894DEBF0FBECDBF19A2423008F4F1
:100F90004AE08E010F5D1F4F842E912CA12CB12CA5
:100FA000A50194010E945B0DE62FB901CA01015011
:100FB0001109EA3014F4E05D01C0E95CD801EC935A
:100FC000232B242B252B61F7C8010E94A307A19690
:100FD0000FB6F894DEBF0FBECDBFDF91CF911F914A
:100FE0000F91BF90AF909F908F9008950F931F9394
:100FF000CF93DF93FC01A285B3859C918481892BDB
:101000008C93A681B7819C918481809589238C9350
:101010008BE090E00197F1F7A681B7819C918481E4
:10102000892B8C9383E290E00197F1F7A681B78139
:101030009C918481809589238C93A285B3859C9112
:101040008481809589238C93A085B1859C9185812D
:10105000892309F056C0EF010E9487032C853D8546
:10106000890120E030E00855194E2F4F3F4FDC0139
:10107000CB01800F911FA21FB31F8E879F87A88B64
:10108000B98BE885F98590818D81892361F40E946F
:1010900087030E851F8528893989061717072807B2
:1010A000390778F72EC00E9487032C853D85DC0127
:1010B000CB01820F931FA11DB11D8E879F87A88B27
:1010C000B98BE885F98590818D81892361F00E9433
:1010D00087030E851F852889398906171707280772
:1010E000390778F70EC00E9487032C853D8525506F
:1010F00031094E855F85241B350BC901860F971F6B
:1011000002C080E090E0DF91CF911F910F91089590
:10111000789484B5826084BD84B5816084BD85B5D2
:10112000826085BD85B5816085BD80916E008160DE
:1011300080936E0010928100809181008260809384
:101140008100809181008160809381008091800086
:101150008160809380008091B10084608093B100B1
:101160008091B00081608093B00080917A008460AB
:1011700080937A0080917A00826080937A008091D7
:101180007A00816080937A0080917A0080688093F1
:101190007A001092C10010927B0110927A01109295
:1011A000C4011092C3011092A20181E08093A101B9
:1011B00010927C0161E082E10E943B0361E083E1E7
:1011C0000E943B038091B9008E7F8093B90080918B
:1011D000B9008D7F8093B90088E48093B80085E4DE
:1011E0008093BC00CDEAD2E0E091BD02F091BE0256
:1011F00082E08083E091B902F091BA021082E0911E
:10120000BB02F091BC028FEC80831092C502E0918A
:10121000C102F091C20286E08083E091BF02F091AA
:10122000C002808180618083E091BF02F091C002A2
:10123000808188608083E091BF02F091C00280814C
:1012400080688083E091BF02F091C00280818F7D31
:10125000808386E593E00E94EA068DEB93E00E948E
:10126000EA068AEE91E09093CA018093C90115E0E5
:101270001093CB01D093C801C093C70186E090E0E2
:101280000E94970E9093CD018093CC018FEE91E058
:101290009093DE018093DD0184E28093DF01D0939F
:1012A000DC01C093DB0185E290E00E94970E9093F1
:1012B000E1018093E00185EE91E09093D401809369
:1012C000D3011093D5018AE493E09093D2018093E7
:1012D000D10185E090E00E94970E9093D701809312
:1012E000D60199E3C92ED12CE12CF12C332433946F
:1012F00025EC222E4090EC035090ED036090EE031D
:101300007090EF038090F4039090F503A090F603A3
:10131000B090F7038091280490912904A0912A04A9
:10132000B0912B048F3F9F4FAF4FBF4F11F00E94E2
:10133000AC034FEF441649EC54064AE964064BE30C
:101340007406C9F0C301B2010E940B0E20E034E222
:1013500044E759E40E94970D2B013C01C501B401FB
:101360000E940B0E20E034E244E759E40E94970DFE
:101370004B015C0108C0412C512C8AE7682E84E4A3
:10138000782E530142010E94AC0328EE33E040E086
:1013900050E00E945B0DCA01B9010E94090E6093E2
:1013A000EF017093F0018093F1019093F2010E949C
:1013B000AC0328EE33E040E050E00E945B0DCA0130
:1013C000B9010E94090E6093F3017093F4018093B8
:1013D000F5019093F6014092F7015092F801609266
:1013E000F9017092FA018092FB019092FC01A092A7
:1013F000FD01B092FE010E94AC0328EE33E040E014
:1014000050E00E945B0DCA01B9010E94090E609371
:10141000FF017093000280930102909302028BEA15
:1014200093E00E94F607BC0180E090E0A7019601DE
:101430000E945B0DCA01B9010E94090E609303026C
:1014400070930402809305029093060289E993E069
:101450000E94F607BC0180E090E0A70196010E947F
:101460005B0DCA01B9010E94090E609307027093D7
:1014700008028093090290930A0287E893E00E9491
:10148000F607BC0180E090E0A70196010E945B0D89
:10149000CA01B9010E94090E60930B0270930C02FD
:1014A00080930D0290930E0285E793E00E94F60769
:1014B000BC0180E090E0A70196010E945B0DCA018B
:1014C000B9010E94090E60930F027093100280937D
:1014D0001102909312028091EA018093E5018091BC
:1014E000EB018093E6018091EC018093E70180910C
:1014F000ED018093E8018091EE018093E901109164
:10150000DF018091DB019091DC01DC01ED91FC9128
:101510000190F081E02D66E009958091DB019091CA
:10152000DC01DC01ED91FC910190F081E02D65E89A
:1015300009958091DB019091DC01DC01ED91FC913A
:101540000190F081E02D6091DF010995C0E0D0E0CD
:101550002091DF0130E08091DB019091DC01C21726
:10156000D3078CF4E091DD01F091DE01EC0FFD1F5B
:1015700060811627DC01ED91FC910190F081E02D56
:1015800009952196E5CFDC01ED91FC910190F08168
:10159000E02D612F09951091D5013092C501B9E078
:1015A000B093C6011092C4011092C3018091D10181
:1015B0009091D201DC01ED91FC910190F081E02D40
:1015C00066E009958091D1019091D201DC01ED9105
:1015D000FC910190F081E02D65E809958091D101A1
:1015E0009091D201DC01ED91FC910190F081E02D10
:1015F0006091D5010995C0E0D0E02091D50130E09F
:101600008091D1019091D201C217D3078CF4E0915F
:10161000D301F091D401EC0FFD1F60811627DC018E
:10162000ED91FC910190F081E02D09952196E5CF97
:10163000DC01ED91FC910190F081E02D612F099585
:101640009091C3018091C601913208F047C020916A
:10165000A2012111FCCFB2E0B093A2013092A1010E
:10166000EFEFE093A00110929F0190939E01A3EAF7
:10167000B1E0EEE7F1E02E2F4EE751E0241B2917F1
:1016800018F42D912193F7CF10927D0190917D0157
:10169000880F892B80937D0180917C01813069F4D2
:1016A00010927C0180917D018093BB008091BC00F1
:1016B00083FDF8CF2092BC0003C055EE5093BC00D0
:1016C0008091A2018230E1F38091A0018F3F31F03F
:1016D0008091A001803211F08091A0011092C4018C
:1016E0001092C3011092C501C5E0D0E08091CF01F6
:1016F000811145C08091C7019091C801DC01ED9135
:10170000FC910480F581E02D09950397C4F1809147
:10171000C7019091C801DC01ED91FC910680F78131
:10172000E02D0995A091C701B091C801ED91FC9100
:101730001197069741F00480F581E02DCD010995C0
:1017400003972CF762C00680F781E02DCD01099543
:1017500085389105A1F48091C7019091C801DC0101
:10176000ED91FC910680F781E02D09958093CF01E2
:101770009091CB01891719F01092CF0146C080914A
:10178000CF01882309F441C08091C7019091C8011D
:10179000DC01ED91FC910480F581E02D09955091DB
:1017A000CF014091CE01892B09F479C0541708F478
:1017B00076C00091CC011091CD0181E0840F80931F
:1017C000CE01040F111D8091C7019091C801DC0169
:1017D000ED91FC910680F781E02D0995F801808359
:1017E000D3CFFB01E40FF11D31978081581309C05D
:1017F0004091CB0150E08091C9019091CA010E94B3
:10180000C90F1092CF011092CE010E946C07219750
:1018100009F06CCF8EE491E00E94A3076091EA0189
:1018200070E080E090E04AE00E94B50784E591E036
:101830000E94A3076091EB0170E080E090E04AE035
:101840000E94B5078BE591E00E94A3076091EC012F
:1018500070E080E090E04AE00E94B50784E691E005
:101860000E94A3076091ED0170E080E090E04AE003
:101870000E94B5078CE691E00E94A3076091EE01FB
:1018800070E080E090E04AE00E94B50787E791E0D1
:101890000E94A3070E946C070E947A012BCD252F7E
:1018A00030E0842F90E001972817390709F0ADCF79
:1018B0005093D0016091CC017091CD01FB0150910A
:1018C000D001CF01861B970B821793070CF089CFAD
:1018D000819158275093D001F2CFCF93DF93C2E488
:1018E000D1E0D0935703C093560386E593E00E945E
:1018F000D406D093BE03C093BD038DEB93E0DF917C
:10190000CF910C94D406EDEAF2E01382128288EEB5
:1019100093E0A0E0B0E084839583A683B7832AE0B8
:1019200031E03183208325EC30E03587248724ECB7
:1019300030E03787268720EC30E0318B208B21EC9C
:1019400030E0338B228B22EC30E0358B248B26EC7D
:1019500030E0378B268B118E128E138E148EEAE4B4
:10196000F3E01382128284839583A683B7838AE18E
:1019700091E091838083ECEDF3E04FEF5FEFBA01EC
:101980004083518362837383108611861286138687
:101990008FEF99ECAAE9BBE3808B918BA28BB38B81
:1019A000808F918FA28FB38F80A391A3A2A3B3A3A3
:1019B00080A791A7A2A7B3A780AB91ABA2ABB3AB13
:1019C00040AF51AF62AF73AF8FEF90E090931D04C3
:1019D00080931C04409320045093210460932204BC
:1019E00070932304409328045093290460932A049D
:1019F00070932B04109230041092310482E0809393
:101A00004104109242041092430410924404109234
:101A10004504109246041092470410924804109214
:101A20004A041092490410924C0410924B041092F4
:101A3000320420E04DE06CE08DEB93E00E94A905BC
:101A400028EC30E045E064E08BEA93E00E94570523
:101A500028EC30E047E066E089E993E00E94570512
:101A600028EC30E049E068E087E893E00E94570501
:101A700028EC30E04BE06AE085E793E00E945705F0
:101A800020E043E062E086E593E00C94A90597FB33
:101A9000072E16F4009407D077FD09D00E947D0D23
:101AA00007FC05D03EF4909581959F4F0895709561
:101AB00061957F4F0895A1E21A2EAA1BBB1BFD0161
:101AC0000DC0AA1FBB1FEE1FFF1FA217B307E4071D
:101AD000F50720F0A21BB30BE40BF50B661F771F75
:101AE000881F991F1A9469F7609570958095909555
:101AF0009B01AC01BD01CF010895AA1BBB1B51E1A5
:101B000007C0AA1FBB1FA617B70710F0A61BB70B6D
:101B1000881F991F5A95A9F780959095BC01CD0112
:101B20000895EE0FFF1F0590F491E02D09940E9497
:101B3000AB0D0C945D0E0E94560E58F00E944F0E95
:101B400040F029F45F3F29F00C94460E51110C949B
:101B5000910E0C944C0E0E946E0E68F39923B1F313
:101B6000552391F3951B550BBB27AA2762177307C3
:101B7000840738F09F5F5F4F220F331F441FAA1F57
:101B8000A9F335D00E2E3AF0E0E832D09150504013
:101B9000E695001CCAF72BD0FE2F29D0660F771FC1
:101BA000881FBB1F261737074807AB07B0E809F0A7
:101BB000BB0B802DBF01FF2793585F4F3AF09E3F2C
:101BC000510578F00C94460E0C94910E5F3FE4F3AF
:101BD000983ED4F3869577956795B795F7959F5F6F
:101BE000C9F7880F911D9695879597F90895E1E0BB
:101BF000660F771F881FBB1F621773078407BA071A
:101C000020F0621B730B840BBA0BEE1F88F7E09574
:101C10000895E89409C097FB3EF4909580957095DF
:101C200061957F4F8F4F9F4F9923A9F0F92F96E928
:101C3000BB279395F695879577956795B795F1119D
:101C4000F8CFFAF4BB0F11F460FF1BC06F5F7F4F3A
:101C50008F4F9F4F16C0882311F096E911C077234C
:101C600021F09EE8872F762F05C0662371F096E855
:101C7000862F70E060E02AF09A95660F771F881F24
:101C8000DAF7880F9695879597F9089597F99F67E2
:101C900080E870E060E008959FEF80EC08950024F4
:101CA0000A941616170618060906089500240A94C1
:101CB00012161306140605060895092E0394000C47
:101CC00011F4882352F0BB0F40F4BF2B11F460FFD6
:101CD00004C06F5F7F4F8F4F9F4F089557FD9058FF
:101CE000440F551F59F05F3F71F04795880F97FBE0
:101CF000991F61F09F3F79F087950895121613069A
:101D00001406551FF2CF4695F1DF08C016161706C8
:101D10001806991FF1CF86957105610508940895FD
:101D2000E894BB2766277727CB0197F90895CF93CF
:101D3000DF938230910510F482E090E0E09151044D
:101D4000F091520420E030E0C0E0D0E0309711F193
:101D50004081518148175907C0F04817590761F46D
:101D600082819381209719F09B838A832BC0909363
:101D700052048093510426C02115310519F04217F1
:101D8000530718F49A01BE01DF01EF010280F381CD
:101D9000E02DDCCF2115310509F1281B390B24304A
:101DA000310590F412968D919C91139761157105F0
:101DB00021F0FB019383828304C0909352048093AB
:101DC0005104FD01329644C0FD01E20FF31F8193DF
:101DD0009193225031092D933C933AC020914F04A6
:101DE00030915004232B41F42091020130910301E2
:101DF0003093500420934F04209100013091010151
:101E00002115310541F42DB73EB7409104015091A1
:101E10000501241B350BE0914F04F0915004E217AB
:101E2000F307A0F42E1B3F0B2817390778F0AC01FD
:101E30004E5F5F4F2417350748F04E0F5F1F5093DA
:101E4000500440934F048193919302C0E0E0F0E08E
:101E5000CF01DF91CF9108950F931F93CF93DF931D
:101E6000009709F48CC0FC01329713821282009112
:101E70005104109152040115110581F42081318122
:101E8000820F931F20914F04309150042817390777
:101E900079F5F0935004E0934F0471C0D80140E00D
:101EA00050E0AE17BF0750F412962D913C91139756
:101EB000AD012115310509F1D901F3CF9D01DA01F9
:101EC0003383228360817181860F971F8217930766
:101ED00069F4EC0128813981260F371F2E5F3F4FAF
:101EE000318320838A819B8193838283452B29F4CC
:101EF000F0935204E093510442C01396FC93EE9386
:101F00001297ED01499159919E01240F351FE21757
:101F1000F30771F480819181840F951F02961196C9
:101F20009C938E938281938113969C938E931297A8
:101F3000E0E0F0E0D80112968D919C911397009704
:101F400019F0F8018C01F6CF8D919C9198012E5FCC
:101F50003F4F820F931F20914F0430915004281758
:101F6000390769F4309729F4109252041092510401
:101F700002C0138212821093500400934F04DF9129
:101F8000CF911F910F91089581E090E0F8940C9407
:101F9000D20FFB01DC0102C001900D924150504074
:101FA000D8F7089510E0C2E6D0E004C0FE010E9418
:0E1FB000910D2196C336D107C9F7F894FFCFE3
:101FBE000000530480000000000011018D00DA00C3
:101FCE00B800CC00580100000000660236022E0256
:101FDE001F02110210020000000084018D00840116
:101FEE008401840184010000000084018D00000042
:101FFE000000AE028D0002031A039502AD02546872
:10200E0072743A0020205961773A0020205069748A
:10201E0063683A002020526F6C6C3A002020537097
:0A202E0072466C61673A000D0A006B
:00000001FF
